:1000000040C0A8C159C058C057C056C055C054C000
:1000100053C052C051C050C04FC04EC04DC04CC064
:100020004BC04AC049C009021200010100803209D8
:10003000040000000000000012011001FF00000891
:10004000C016DC050001010200011A036E007200F7
:100050006600320034006C00650031002D00610044
:10006000730070001A036E007200660032003400E4
:100070006C00650031002D00640069007900040304
:10008000090411241FBECFE5D4E0DEBFCDBF10E0D0
:10009000A0E6B0E0EEE7FAE002C005900D92A436CB
:1000A000B107D9F720E0A4E6B0E001C01D92AA3B59
:1000B000B207E1F7ADD4E1C4A3CFCF93DF93609152
:1000C0007500635067FDB0C080917200CCE0D0E055
:1000D000C81BD109C758DF4F809171008D3209F0DC
:1000E0008FC0683009F09EC083EC809365008AE57C
:1000F00080936200109264008881807621F0CE01A6
:1001000049D49C0165C09A8110926E008981811149
:1001100007C010926F008EE690E022E030E054C0FD
:10012000853019F4909376003CC08630A1F58B8120
:10013000813019F488E390E004C0823049F486E20B
:1001400090E0909374008093730022E130E01FC030
:100150008330D9F4911109C08EE790E09093740038
:100160008093730024E030E012C0913019F484E6EB
:1001700090E004C0923049F48AE490E090937400D7
:10018000809373002AE130E002C020E030E080E498
:10019000809364001DC0883099F0893039F49093C1
:1001A00078008EE690E020E030E00EC041E090E084
:1001B0008A3009F040E0242F392F8EE690E004C009
:1001C00088E790E021E030E0909374008093730022
:1001D0002F3F8FEF380749F4888187FF02C02E81B7
:1001E0003F8180E88093640006C08E819F818217E2
:1001F000930708F49C01309361002093600012C0C3
:100200008091640087FF0EC0CE01F3D28F3F21F4AE
:100210008EE18093620006C0882321F01092610075
:1002200010926000109275008091620084FF65C09A
:1002300080916000909161008F3F2FEF920709F449
:100240005CC0BC018930910510F068E070E0861B4D
:10025000970B90936100809360008091650098E80F
:10026000892780936500C62F662381F18091640001
:1002700087FF07C086E690E067D2C82F8930A0F5D7
:1002800025C0409173005091740086FF0BC0A6E614
:10029000B0E0FA01862F8A0F94919D9331968A13CC
:1002A000FBCF09C0DA01E6E6F0E0862F8E0F9D91C4
:1002B00091938E13FCCF2FEF2C0F30E02F5F3F4F29
:1002C000240F351F30937400209373006C2F86E643
:1002D00090E03CD0CC5FCC3071F02FEF3FEF30930B
:1002E00061002093600007C08FEF9FEF9093610043
:1002F00080936000CEE1C093620084E196B3937076
:1003000031F48150D9F71092760010927000DF918D
:10031000CF91089585B7826085BF8BB780648BBF0E
:100320000895A82FB92F80E090E041E050EA609551
:1003300030E009C02D9182279795879510F084278A
:100340009527305EC8F36F5FA8F30895EADF8D93B9
:100350009D930895CF93CFB7CF93C395B09BE9F703
:10036000B09B09C0B09B07C0B09B05C0B09B03C049
:10037000B09B01C0A1C0DF93C0917200DD27C758B8
:10038000DF4FB09B02C0DF91EBCF2F930F931F93F2
:1003900006B32FEF00FB20F94F933F9316B34FEFB7
:1003A000012700FB21F93BE031C04E7F012F16B33E
:1003B000216028C0102F4D7F2260000006B329C0A5
:1003C0004B7F2460012F000016B32BC016B3477F6C
:1003D00028602AC04F7E06B320612CC04F7D16B323
:1003E00020622FC04F7B06B3206432C0422706B381
:1003F00049934FEF0000102710FB20F916B313703C
:10040000C9F1297F91F2012700FB21F906B3237F6F
:1004100089F2315058F1102710FB22F916B3277ECC
:1004200079F2012700FB23F92F7C81F206B3102714
:1004300010FB24F92F7971F200C016B3012700FBDD
:1004400025F92F7359F200C006B3102710FB26F9C7
:10045000223040F200C016B3012700FB27F92430F8
:1004600028F64F77206816B30000F9CF10E41ABFC2
:10047000002717C03B503195C31BD04010E41ABF72
:100480000881033CE9F00B34D9F020917000198108
:10049000110F1213EDCF093641F10D3211F0013E6B
:1004A00039F7009377003F914F911F910F912F9152
:1004B000DF91CAB7C6FD51CFCF91CFBFCF9118956D
:1004C00020917700222379F310917500112311F503
:1004D000343012F130937500209371001091720046
:1004E0003BE0311B3093720017C000917500013062
:1004F0008CF40AE53091620034FD10C00093620074
:10050000C5E6D0E00FC02795A8F45150A9F4220FFA
:100510000000F9CF4AE503C042ED01C0432FC4E11A
:10052000D0E032E017B31360C09A17BB08B320E4E1
:1005300013E05F93012756E008BB279520F4515044
:1005400021F4220FF9CF012756E000003B5A08BBE7
:10055000D0F2279528F4515029F4220F0000F9CF4A
:10056000012756E0279508BB20F4515021F4220FB3
:10057000F9CF012756E02991332308BB21F60C7FE0
:1005800010917600110FC651D04008BB11F01093A6
:10059000700010E41ABF016017B31C7F402F4C7F1E
:1005A0005F9100C000C008BB17BB48BB7CCF83E095
:1005B00084BB85BB0895A8980895A89A0895A99822
:1005C0000895A99A0895FBDFC2980895C29AF9CFB9
:1005D0008FB9779BFECF8FB108958FB9779BFECFF0
:1005E0001FB8779BFECF8FB10895CF93DF931F92F3
:1005F000CDB7DEB7E8DF85E0EBDF80E0E9DF8983B8
:10060000E5DF89810F90DF91CF910895CF93CAE004
:10061000DADF86E0DDDFDADFE8DF85FD0AC08FE6BE
:1006200097E10197F1F700C00000C15089F780E021
:1006300001C081E0CF910895CF93CAE0D6DF85FF56
:100640000AC08FE697E10197F1F700C00000C150A2
:10065000A9F780E001C081E0CF910895CF93CAE06F
:10066000C4DF84FF0AC08FE697E10197F1F700C06D
:100670000000C150A9F780E001C081E0CF9108954A
:10068000CF93DF93B2DFD82F9EDF86E0A1DF9EDF1E
:10069000ACDFC82F98DF84E09BDF98DFA6DFD5FDB5
:1006A00008C0C5FF06C085FB882780F991E089272F
:1006B00001C080E0DF91CF910895909887E99AE397
:1006C0000197F1F700C00000909A8FE295E701973B
:1006D000F1F700C000000895CF93C82F803268F46E
:1006E000BDDF882351F092DF882339F06CDF82E58B
:1006F0006FDF8C2F6DDF6ADF9FDF80E090E0CF91AE
:100700000895EF92FF921F93CF93DF931F92CDB77F
:10071000DEB7182F7B01998356DF83E059DF99817B
:10072000892F56DF812F54DFF092B400E092B3009E
:1007300081E08093B6008FEF9FEF0F90DF91CF9114
:100740001F91FF90EF9008950F931F93CF93DF9326
:10075000162F2091B600222331F12091B300309161
:10076000B400462F50E02417350708F4122F082F45
:10077000EC018C2F801B811720F480E029DF899306
:10078000F8CF2091B3003091B400211B3109309390
:10079000B4002093B300232B41F48091B60088234A
:1007A00021F014DF02C080E001C0812FDF91CF91E2
:1007B0001F910F9108950F931F93CF93DF93EC0137
:1007C0008B018032910518F080E090E00DC046DF8B
:1007D0008823D1F3C093B900109392000093910045
:1007E0001092B6008FEF9FEFDF91CF911F910F9185
:1007F0000895EF92FF920F931F93CF93DF93082FEB
:10080000F92E162F8091B600811167C020919100BA
:1008100030919200462F50E02417350708F4122F2C
:1008200020918F0030919000232BE9F4EFDE882394
:1008300009F451C0C8DE82E5CBDE8091B900C8DE84
:10084000C5DEFADE882309F446C0E0DE882309F419
:1008500042C0C091B900CC0FB6DE82E0B9DE8C2F69
:10086000B7DE80E0B5DEE02EC02FDF2D8C2F8E1995
:10087000811760F48991ACDE80918F009091900097
:1008800001969093900080938F00F0CF809191001B
:1008900090919200811B9109909392008093910016
:1008A00020918F00309190002115324011F0892B5A
:1008B00059F41092900010928F0088DEBDDE809176
:1008C000B9008F5F8093B90081E020919100309151
:1008D0009200232B19F080E001C081E0DF91CF91DD
:1008E0001F910F91FF90EF900895B8DE81110BC01A
:1008F00081E08093930079DE809396008093950049
:100900008093940029C05FDE70DE809394005EDEE9
:100910005ADE86E05DDE5ADE56DE67DE80939500A5
:1009200055DE51DE84E054DE51DE4DDE5EDE809326
:1009300096004CDE8091940085FD0BC0809195005F
:1009400085FF07C08091960085FD03C0109293003B
:1009500003C083E08093930084E090E00895CF93F8
:100960008CE287BB88BB80E58DB9C1E0CEB9919A96
:10097000A4DEC093B5001FDE80E090E0CF91089523
:1009800017BA18BA919899DE1092B50016DE80E079
:1009900090E00895FC0183E990E0909374008093C7
:1009A00073008181811116C01092930081E08093C1
:1009B00094001092950082818093960083818093A9
:1009C000970084818093980085818093990087E0C7
:1009D00090E00895813009F4C2CF823009F4D0CF7D
:1009E000833009F482CF853029F464817581828156
:1009F0009381E1CE843029F4648175818281938171
:100A000080CE863011F4828167CE80E090E0089538
:100A1000CEDD2EE088E190E00FB6F894A89581BD78
:100A20000FBE21BD77DCB89A80E0815041F0A895D7
:100A3000E7EBFBE03197F1F700C00000F6CFB89884
:100A4000A89581B3836081BB78948091B5008111B2
:100A500011C08091B7009091B80001969093B800B2
:100A60008093B700009711F4A6DD04C08F3F9F4A22
:0E0A700009F4A3DDA89521DBE8CFF894FFCFB1
:040A7E00FFFF5A001C
:00000001FF
